:100000000C9459000C9484310C9484310C948431F8
:100010000C9484310C9484310C9484310C94872F8B
:100020000C9484310C9484310C9484310C9484317C
:100030000C9484310C9484310C9484310C9484316C
:100040000C9484310C9484310C9484310C9484315C
:100050000C9484310C9484310C9484310C9484314C
:100060000C9484310C9484310C9484310C9484313C
:100070000C9484310C9484310C9484310C9484312C
:100080000C9484310C9484310C9484310C9484311C
:100090000C9484310C9484310C9484310C9484310C
:1000A0000C9484310C9484310C9484310100032825
:1000B000800011241FBECFEFDAE0DEBFCDBFECEA37
:1000C000F0E040E017C0B591A591359125910591DB
:1000D00007FD0CC095918591EF01F92FE82F059050
:1000E0000D92A217B307D9F7FE0104C01D92A21703
:1000F000B307E1F7E13BF40731F70E947B2E0C9444
:060100000A31F894FFCF64
:10010600000000000000005F000000070007001468
:100116007F147F14242A7F2A122313086462364927
:100126005522500005030000001C22410000412218
:100136001C0014083E081408083E08080050300049
:100146000008080808080060600000201008040283
:100156003E5149453E00427F400042615149462199
:1001660041454B311814127F1027454545393C4A05
:100176004949300171090503364949493606494955
:10018600291E0036360000005636000008142241AB
:100196000014141414140041221408020151090613
:1001A600324979413E7E1111117E7F494949363ED9
:1001B600414141227F4141221C7F494949417F09F2
:1001C6000909013E4149497A7F0808087F00417FB5
:1001D60041002040413F017F081422417F404040BA
:1001E600407F020C027F7F0408107F3E4141413E62
:1001F6007F090909063E4151215E7F0919294646B4
:100206004949493101017F01013F4040403F1F20DC
:1002160040201F3F4038403F6314081463070870AE
:1002260008076151494543007F4141000204081017
:10023600200041417F00040201020440404040404A
:10024600000102040020545454787F48444438384E
:1002560044444420384444487F3854545418087E53
:100266000901020C5252523E7F0804047800447D74
:1002760040002040443D007F1028440000417F405C
:10028600007C041804787C08040478384444443814
:100296007C14141408081414187C7C0804040848F8
:1002A60054545420043F4440203C4040207C1C20B1
:1002B60040201C3C4030403C44281028440C505000
:1002C600503C4464544C44000836410000007F0012
:1002D6000000413608001008081008000000000061
:1002E60031003300453A3100423A3200433A330096
:1002F60045737461204461F161646F00453A3300CF
:10030600433A310045737461204461F161646F3191
:1003160000256600423A003200456C656D656E74D4
:100326006F206E6F006964656E74696669636164E7
:0A0336006F00504E50004E504E0074
:1003400047004400530043414E414C205000473A7F
:100350003100443A3200533A33004573746120440B
:1003600061F161646F0043414E414C204E00473AB9
:060370003300533A310096
:10037600252E336600566469726563746F0056698C
:100386006E766572736F002564005664696F646FDC
:0903960000413A2000433A200026
:10039F0068076C094C836A9074A07AC000806888E3
:0603AF0000846C82008155
:1003B50053006900470065005A0068004C45440039
:0403C5004341500060
:1003C900494E4600696E66004E414E006E616E00F0
:0F03D900524553495354454E43494100523A004F
:0703E800286E756C6C290002
:0603EF00286E696C290074
:1003F600A6E2B0E0E1E0F2E00C94A32F98A38F8F81
:100406007F8B6E8B288FFB010190F081E02DFA87A0
:10041600E987FB0102811381248135813B8B2A8B7D
:10042600808591859AA389A30680F781E02DFA83BA
:10043600E983FA0180809180A280B38020E030E0D9
:10044600A901C501B4010E94673187FF06C0B7FA4A
:10045600B094B7F8B0948DE204C0F985F2FF69C391
:100466008BE2E981FA8180832A893B89215031090F
:100476003C832B8341E050E0598B488B06C08A8928
:100486009B899C838B83198A188AD501C401BF77FF
:100496000097E0E8AE07EFE7BE07F1F4F88D2F2FDF
:1004A600FF0F330B2154310989819A814889598973
:1004B600840F951F2A31310520F449EC53E060E0A2
:1004C60003C04DEC53E060E00E94E43089819A81DC
:1004D6003C01E0E88E2E1AC30197A048BF47F0F012
:1004E600488D242F440F330B2154310989819A8179
:1004F600E889F9898E0F9F1F2A31310520F441EDD5
:1005060053E060E003C045ED53E060E00E94E43054
:1005160029813A81390140E8842EF8C220E030E092
:10052600A901C501B4010E946731C12CD12C20E874
:10053600E22E2FE3F22E212C312C882309F487C0DA
:100546008D829E82AF82B88620E030E040E251E4A0
:10055600C701B6010E947D312B013C01D501C401C2
:1005660084199509A609B709B7FF07C0B095A095E4
:10057600909581959F4FAF4FBF4F0297A105B1054B
:1005860034F45FEF251A350A73016201DDCFA50148
:100596009401C301B2010E94673187FDF2CF8D81BC
:1005A6009E81AF81B8858C199D09AE09BF09019658
:1005B600A11DB11D0397A105B10508F446C01E8211
:1005C6001D82A5019401C701B6010E946C3118165F
:1005D600F4F584ED28168EEF3806E4F4ED81FE81FD
:1005E600EF2BC1F420E030E040E85AE5C501B40144
:1005F6000E947D314B015C0120E030E040E85AE585
:10060600C701B6010E947D316B017C0121E030E01B
:100616003E832D8320E030E040E251E4C701B6017D
:100626000E9479316B017C0131E0231A3108D50132
:10063600C4018C199D09AE09BF090196A11DB11D02
:100646000397A105B10508F0BCCF46015701488DB7
:10065600042E000C550B598F488FCA010E94313168
:100666008A8F17FD03C01E830D8304C086E090E0C9
:100676009E838D839A8D973639F4012B41F4E1E000
:10068600F0E0FE83ED8303C04A8D4F8710C02CEF48
:1006960022162FEF32060CF451C22D813E8122160E
:1006A60033060CF04BC237FE4CC256E65F878D818F
:1006B6009E8101969E838D839F85963699F437FE9B
:1006C60008C0C12CD12C90E8E92E9FE3F92E212CED
:1006D600312CEA8DE73631F02D813E81220D331D16
:1006E6003E832D831C2DDDA2EBA20F2D8B869C86CF
:1006F600AD86BE861D8A1C8A8C899D89ED81FE8108
:100706008E179F07DCF5212F3DA14BA1502F6B853E
:100716007C858D859E850E9479310E94C5252B0199
:100726003C010E9455316B8FA3019201612F7DA17F
:100736008BA1902F0E947D312B853C854D855E8552
:100746000E9439319B01AC0150582B873C874D875D
:100756005E8720E030E040E251E4612F7DA18BA16D
:10076600902F0E947931162F7DA38BA3092F4C89D8
:100776005D894F5F5F4F5D8B4C8BBECF20E030E0D5
:1007860040EA50E4612F7DA18BA1902F0E947D311C
:100796002B013C019B01AC016B857C858D859E857B
:1007A6000E94673187FD0DC0A30192016B857C8590
:1007B6008D859E850E946731811106C0FB8DF0FDF7
:1007C60003C0412C512C3201A5019401C301B20191
:1007D6000E943A314B015C0120E030E040E251E4F6
:1007E600C701B6010E947D316B877C8B182F092FBC
:1007F6009B01482F592FC501B4010E946C3187FD1A
:1008060011C02FEF221A320A3F85363679F44D8110
:100816005E814F5F5F4F5E834D835B855DA38C89F1
:100826008EA30BC0CB86DC8A1E2D0F2D9F85953699
:1008360031F0EB85EDA3FC89FEA3710106C02B8583
:100846002DA33C893EA3E12CF12C48885988C12C64
:10085600D12C1D8A1C8A1C861B8649855A854071A7
:1008660055275CA34BA32B853C854D815E812417C0
:10087600350734F08C899D89892B09F497C0A3C06C
:100886003201EE89FF8980859185059748165906BC
:1008960088F72DA13EA1412F502FC501B4010E941A
:1008A60079310E94C5256B8F7C8F8D8F9E8F0E941C
:1008B60055316A30710514F069E070E08BA19CA196
:1008C600892B69F46115710551F49A8D973639F4BF
:1008D600F7FE05C03601EFEF6E1A7E0A3BC02C8983
:1008E6003D89232BA1F4F7FE12C03FEF431A530AAA
:1008F600E981FA81E60DF71D4EE240838B819C81EA
:1009060001979C838B83E1E0F0E0FD8BEC8BE98122
:10091600FA81E40DF51D36016114710431F020E30E
:10092600219331E0631A7108F7CFC601840D951D36
:100936002B813C812C193D092C014FEF441A540A96
:10094600E981FA81E80FF91F605D6083C9010197AB
:100956009C838B832B8D3C8D4D8D5E8D6DA17EA1F1
:10096600812F902F0E947D31A50194010E9439317B
:100976004B015C01B7FAB094B7F8B09420E030E0D0
:1009860040E251E46DA17EA1812F902F0E94793122
:100996006DA37EA3182F092F91E0E91AF108EB85C4
:1009A600FC853196FC87EB8763015DCFF985F4FF03
:1009B6000AC0E981FA81E40DF51D8EE28083920179
:1009C6002F5F3F4F290149815A81440D551D5E8392
:1009D6004D83FA011082FF85F53609F061C0E98181
:1009E600FA8129A13AA1E20FF31F3197108237FE4F
:1009F60006C031942194310801E010E002C000E005
:100A060010E0E9A1FAA1319749815A81E40FF51F57
:100A160022E030E08AE0E82EF12CCF0149815A81AC
:100A2600841B950B2114310479F0C101B7010E9492
:100A36007230805D82931B01215031098B819C812C
:100A460001979C838B83E9CF1216130674F3FC017E
:100A56003197E40FF51F012B11F42BE201C02DE2B3
:100A660020830297E981FA81E80FF91F288D398DD5
:100A7600215431092A31310510F025E601C025E45B
:100A860020832B813C81225031093C832B834816DD
:100A9600590634F4AF0160E88D819E810E94E430EE
:100AA60049815A813A0180E8882E998591FF2EC0A6
:100AB60090FD2CC0EB81FC811E161F063CF5882D8F
:100AC600B3010E940C3029813A81820F931F9C0149
:100AD60049815A81241B350BE889F9892E173F076E
:100AE6004CF0FC012081EB81FC81E80FF91F20838B
:100AF6000197EDCF4B815C8160E370E089819A813B
:100B06008E0F9F1F0E941F311B8A1A8A882DB301E0
:100B16000E940C30E984FA840A891B899C01682D9D
:100B2600A3018F8D98A10E94AF2AA696E2E10C94AC
:100B3600BF2F598553FFA3CC80E293CC35E63F8780
:080B4600D1CD46E64F87CECD6C
:100B4E008F929F92AF92BF92CF92DF92EF92FF92CF
:100B5E000F931F93CF93DF93CDB7DEB72A970FB6C0
:100B6E00F894DEBF0FBECDBF1BB81AB82AB12961EB
:100B7E002AB9009709F0C2C08BB188618BB9589819
:100B8E0085E090E00E94223009E710E0F8016081D4
:100B9E000F2EF8E7AF2EB12CF02DF501808170E00D
:100BAE00762F6627680F711D072E000C880B990B88
:100BBE000E94552C20E030E040EA50E40E947D3146
:100BCE0020E030EC4FE754E40E9479319B01AC01F8
:100BDE006DEC7CEC8CE990E40E9439316B017C0168
:100BEE00F801808186E090E00E942230F801608159
:100BFE00F501808170E0762F6627680F711D072E34
:100C0E00000C880B990B0E94552C20E030E040EA36
:100C1E0050E40E947D3120E030EC4FE754E40E9416
:100C2E0079319B01AC016DEC7CEC8CE990E40E9477
:100C3E0039314B015C01F801808120E030E04AE25D
:100C4E0054E4C701B6010E9479316B017C0120E0AA
:100C5E003EE745EE58E4C501B4010E9479319B018F
:100C6E00AC01C701B6010E9479319F938F937F9398
:100C7E006F9387E193E0A0E0AF939F938F93CE01A4
:100C8E0001969F938F930E94C03064E170E088E2DA
:100C9E0090E00E94623141E050E06AE173E080E052
:100CAE000E944A2F64E170E085E390E00E94623179
:100CBE00898161E070E090E00E9413258A8161E0F5
:100CCE0070E090E00E9413258B8161E070E090E06F
:100CDE000E9413258C8161E070E090E00E94132544
:100CEE008D8161E070E090E00E9413250E94DA2F62
:100CFE000FB6F894DEBF0FBECDBF40C28130910556
:100D0E0009F0C2C08BB189608BB95C9887E090E026
:100D1E000E94223009E710E0F80160810F2EF8E7FB
:100D2E00AF2EB12CF02DF501808170E0762F662765
:100D3E00680F711D072E000C880B990B0E94552C05
:100D4E0020E030E040EA50E40E947D3120E030ECBB
:100D5E004FE754E40E9479319B01AC016AE979E9CD
:100D6E0089E990E40E9439316B017C01F8018081A0
:100D7E0086E090E00E942230F8016081F5018081CA
:100D8E0070E0762F6627680F711D072E000C880BFA
:100D9E00990B0E94552C20E030E040EA50E40E946E
:100DAE007D3120E030EC4FE754E40E9479319B0115
:100DBE00AC016DEC7CEC8CE990E40E9439314B0176
:100DCE005C01F801808120E030E04AE254E4C70182
:100DDE00B6010E9479316B017C0120E03EE745EEC1
:100DEE0058E4C501B4010E9479319B01AC01C701E1
:100DFE00B6010E9479319F938F937F936F9387E112
:100E0E0093E0A0E0AF939F938F93CE0101969F93B3
:100E1E008F930E94C03064E170E088E290E00E94FF
:100E2E00623141E050E06AE173E080E00E944A2FB7
:100E3E0064E170E085E390E00E946231898161E0B7
:100E4E0070E090E00E9413258A8161E070E090E0EE
:100E5E000E9413258B8161E070E090E00E941325C3
:100E6E008C8161E070E090E00E9413258D8161E03D
:100E7E0070E090E00E9413250E94DA2F0FB6F894CE
:100E8E00DEBF0FBECDBF7AC18230910509F0BAC068
:100E9E005C9A8BB1867F8BB985E090E00E94223000
:100EAE0009E710E0F80160810F2EF8E7AF2EB12CA4
:100EBE00F02DF501808170E0762F6627680F711D89
:100ECE00072E000C880B990B0E94552C20E030E069
:100EDE0040EA50E40E947D3120E030EC4FE754E4CC
:100EEE000E9479319B01AC016DEC7CEC8CE990E4B5
:100EFE000E9439316B017C01F801808186E090E01F
:100F0E000E942230F8016081F501808170E0762F19
:100F1E006627680F711D072E000C880B990B0E9417
:100F2E00552C20E030E040EA50E40E947D3120E074
:100F3E0030EC4FE754E40E9479314B015C01F8012B
:100F4E00808120E030E04AE254E4C701B6010E94FD
:100F5E0079316B017C0120E03EE745EE58E4C50196
:100F6E00B4010E9479319B01AC01C701B6010E9408
:100F7E0079319F938F937F936F9387E193E0A0E0F6
:100F8E00AF939F938F93CE0101969F938F930E9461
:100F9E00C03064E170E088E290E00E94623141E08E
:100FAE0050E06AE173E080E00E944A2F64E170E055
:100FBE0085E390E00E946231898161E070E090E00B
:100FCE000E9413258A8161E070E090E00E94132553
:100FDE008B8161E070E090E00E9413258C8161E0CE
:100FEE0070E090E00E9413258D8161E070E090E04A
:100FFE000E9413250E94DA2F0FB6F894DEBF0FBEA3
:10100E00CDBFBCC0039709F0B9C0589A8BB1877E8B
:10101E008BB987E090E00E94223009E710E0F801DA
:10102E0060810F2EF8E7AF2EB12CF02DF5018081E7
:10103E0070E0762F6627680F711D072E000C880B47
:10104E00990B0E94552C20E030E040EA50E40E94BB
:10105E007D3120E030EC4FE754E40E9479319B0162
:10106E00AC016DEC7CEC8CE990E40E9439316B01A3
:10107E007C01F801808186E090E00E942230F80128
:10108E006081F501808170E0762F6627680F711DF3
:10109E00072E000C880B990B0E94552C20E030E097
:1010AE0040EA50E40E947D3120E030EC4FE754E4FA
:1010BE000E9479314B015C01F801808120E030E023
:1010CE004AE254E4C701B6010E9479316B017C01FA
:1010DE0020E03EE745EE58E4C501B4010E947931A7
:1010EE009B01AC01C701B6010E9479319F938F938A
:1010FE007F936F9387E193E0A0E0AF939F938F93DD
:10110E00CE0101969F938F930E94C03064E170E0F0
:10111E0088E290E00E94623141E050E06AE173E0C3
:10112E0080E00E944A2F64E170E085E390E00E9427
:10113E006231898161E070E090E00E9413258A811E
:10114E0061E070E090E00E9413258B8161E070E019
:10115E0090E00E9413258C8161E070E090E00E9487
:10116E0013258D8161E070E090E00E9413250E94AE
:10117E00DA2F0FB6F894DEBF0FBECDBF2A960FB68C
:10118E00F894DEBF0FBECDBFDF91CF911F910F91AF
:10119E00FF90EF90DF90CF90BF90AF909F908F9089
:0211AE000895A2
:1011B0008F929F92AF92BF92CF92DF92EF92FF9267
:1011C0000F931F93CF93DF931BB81AB8019709F0C1
:1011D00071C18AB189618AB98BB189608BB985E0A7
:1011E00090E00E942230C9E7D0E0688180917800C9
:1011F00070E0762F6627680F711D072E000C880B94
:10120000990B0E94552C20E030E040EA50E40E9407
:101210007D3120E030EC4FE754E40E9479316B01DE
:101220007C0188812DEC3CEC4CE45EE3C701B60107
:101230000E94673188230CF0B4C08BB188618BB9F0
:10124000589887E090E00E942230F8800F2EF8E74F
:10125000AF2EB12CF02DF501E080888185E090E083
:101260000E9422301881F501008188816F2D70E085
:10127000762F66276E0D711D072E000C880B990BBB
:101280000E94552C20E030E040EA50E40E947D317D
:1012900020E030EC4FE754E40E9479316B017C018F
:1012A000612F70E0762F6627600F711D072E000CEE
:1012B000880B990B0E94552C20E030E040EA50E466
:1012C0000E947D3120E030EC4FE754E40E947931F8
:1012D0009B01AC016DEC7CEC8CE990E40E9439310F
:1012E0009B01AC01C701B6010E946C3118160CF0CD
:1012F00046C06AE170E086E190E00E94623141E020
:1013000050E066EE72E080E00E944A2F61E070E0FB
:1013100086E190E00E94623141E050E068EE72E0C8
:1013200080E00E944A2F68E270E085E090E00E9431
:10133000623141E050E06AEE72E080E00E944A2FA4
:1013400068E270E08EE190E00E94623141E050E09E
:101350006EEE72E080E00E944A2F68E270E087E360
:1013600090E00E94623141E050E062EF72E080E084
:101370000E944A2F0E94DA2F812C912C0DC20E94CC
:101380009A3062E070E082E090E00E94623141E0D9
:1013900050E066EF72E080E00E944A2F0E94DA2F50
:1013A000FBC187E090E00E942230E9E7F0E0608135
:1013B00080917800908170E0762F6627680F711D0C
:1013C000072E000C880B990B0E94552C20E030E072
:1013D00040EA50E40E947D3120E030EC4FE754E4D5
:1013E0000E9479319B01AC016DEC7CEC8CE990E4BE
:1013F0000E9439319B01AC01C701B6010E946C31DA
:1014000018160CF047C06AE170E086E190E00E9497
:10141000623141E050E068EE72E080E00E944A2FC5
:1014200061E070E086E190E00E94623141E050E0CE
:1014300066EE72E080E00E944A2F68E270E085E08C
:1014400090E00E94623141E050E062E073E080E0B1
:101450000E944A2F68E270E08EE190E00E946231C3
:1014600041E050E06EEE72E080E00E944A2F68E2B8
:1014700070E087E390E00E94623141E050E066E076
:1014800073E080E00E944A2F0E94DA2F8824839420
:10149000912C82C162E070E082E090E00E946231B3
:1014A00041E050E06AE073E080E00E944A2F0E9431
:1014B000DA2F72C18AB189618AB9589A85E090E0C1
:1014C0000E942230E9E7F0E060818091780090810D
:1014D00070E0762F6627680F711D072E000C880BB1
:1014E000990B0E94552C20E030E040EA50E40E9425
:1014F0007D3120E030EC4FE754E40E9479316B01FC
:101500007C012DEC3CEC4CEC5DE30E9467318823C0
:101510000CF0B6C05C9A589887E090E00E942230A8
:10152000C9E7D0E0F8800F2EF8E7AF2EB12CF02DF0
:10153000F501E080888185E090E00E9422301881EA
:10154000F501008188816F2D70E0762F66276E0D82
:10155000711D072E000C880B990B0E94552C20E062
:1015600030E040EA50E40E947D3120E030EC4FE76B
:1015700054E40E9479316B017C01612F70E0762F79
:101580006627600F711D072E000C880B990B0E94B7
:10159000552C20E030E040EA50E40E947D3120E00C
:1015A00030EC4FE754E40E9479319B01AC016AE9C9
:1015B00079E989E990E40E9439319B01AC01C701C6
:1015C000B6010E946C3118160CF048C06AE170E058
:1015D00086E190E00E94623141E050E068EE72E006
:1015E00080E00E944A2F61E070E086E190E00E9476
:1015F000623141E050E066EE72E080E00E944A2FE6
:1016000068E270E085E090E00E94623141E050E0E5
:1016100062E073E080E00E944A2F68E270E08EE1B1
:1016200090E00E94623141E050E06EEE72E080E0B6
:101630000E944A2F68E270E087E390E00E946231E6
:1016400041E050E066E073E080E00E944A2F0E9493
:10165000DA2F6894882481F8912C9EC00E949A30D9
:1016600062E070E082E090E00E94623141E050E090
:1016700066EF72E080E00E944A2F0E94DA2F8CC051
:1016800087E090E00E942230E9E7F0E060818091FD
:101690007800908170E0762F6627680F711D072E05
:1016A000000C880B990B0E94552C20E030E040EA9A
:1016B00050E40E947D3120E030EC4FE754E40E947A
:1016C00079319B01AC016AE979E989E990E40E94EA
:1016D00039319B01AC01C701B6010E946C3118166B
:1016E0000CF049C06AE170E086E190E00E9462314E
:1016F00041E050E066EE72E080E00E944A2F61E037
:1017000070E086E190E00E94623141E050E068EED6
:1017100072E080E00E944A2F68E270E085E090E08D
:101720000E94623141E050E06AEE72E080E00E9487
:101730004A2F68E270E08EE190E00E94623141E061
:1017400050E06EEE72E080E00E944A2F68E270E0A6
:1017500087E390E00E94623141E050E062EF72E086
:1017600080E00E944A2F0E94DA2F0F2EF3E08F2E86
:10177000912CF02D11C00E949A3062E070E082E05E
:1017800090E00E94623141E050E06AE073E080E066
:101790000E944A2F0E94DA2FC401DF91CF911F913E
:1017A0000F91FF90EF90DF90CF90BF90AF909F9000
:0417B0008F90089579
:1017B4008F929F92AF92BF92CF92DF92EF92FF925D
:1017C400CF93DF931BB81AB88AB185618AB98BB1FC
:1017D40085608BB987E090E00E942230EC0185E0BF
:1017E40090E00E942230BC01990F880B990B0E9453
:1017F400552C20E030E040EA50E40E947D3120E0A6
:1018040030EC4FE754E40E9479316B017C01BE0156
:10181400DD0F880B990B0E94552C20E030E040EA44
:1018240050E40E947D3120E030EC4FE754E40E9404
:10183400793120E030E040E85FE30E946C31181613
:101844000CF02AC120E030E040E85FE3C701B601B4
:101854000E946C3118160CF01FC186E090E00E94C3
:101864002230BC01990F880B990B0E94552C20E063
:1018740030E040EA50E40E947D3120E030EC4FE754
:1018840054E40E947931A70196010E94393120E085
:1018940030E040E05FE30E946C3118160CF080C029
:1018A4008BB18A7F8BB95C9A86E090E00E942230EB
:1018B4007C0185E090E00E942230EC01B701FF0C2E
:1018C400880B990B0E94552C20E030E040EA50E44C
:1018D4000E947D3120E030EC4FE754E40E947931DE
:1018E4006B017C01BE01DD0F880B990B0E94552C06
:1018F40020E030E040EA50E40E947D3120E030EC0A
:101904004FE754E40E9479319B01AC01C701B60151
:101914000E9439312DEC3CEC4CE45EE30E946731CB
:1019240088237CF50E949A300E94091365E088E2BE
:101934000E94623141E066E473E080E00E944A2F35
:1019440068E285E00E94623141E06EE473E080E089
:101954000E944A2F68E281E20E94623141E062E51E
:1019640073E080E00E944A2F68E281E40E946231C1
:1019740041E066E573E080E00E944A2F0E94DA2F7E
:1019840003C20E949A3068E284E10E94623141E01D
:101994006AE573E080E00E944A2F0E94DA2FF4C1C6
:1019A40086E090E00E9422307C0185E090E00E9475
:1019B4002230EC01B701FF0C880B990B0E94552CC7
:1019C40020E030E040EA50E40E947D3120E030EC39
:1019D4004FE754E40E9479316B017C01BE01DD0FB5
:1019E400880B990B0E94552C20E030E040EA50E42B
:1019F4000E947D3120E030EC4FE754E40E947931BD
:101A04009B01AC01C701B6010E9439312DEC3CECBD
:101A14004CE45EE30E94673188237CF50E949A308F
:101A24000E943D1165E088E20E94623141E066E671
:101A340073E080E00E944A2F68E285E00E946231F0
:101A440041E06EE473E080E00E944A2F68E281E2A4
:101A54000E94623141E062E573E080E00E944A2F17
:101A640068E281E40E94623141E066E573E080E06F
:101A74000E944A2F0E94DA2F87C10E949A3068E29E
:101A840084E10E94623141E06AE573E080E00E94F3
:101A94004A2F0E94DA2F78C158981BB88BB1846101
:101AA4008BB987E090E00E942230BC01990F880B2B
:101AB400990B0E94552C20E030E040EA50E40E944B
:101AC4007D3120E030EC4FE754E40E9479316B0122
:101AD4007C0185E090E00E942230BC01990F880BC4
:101AE400990B0E94552C20E030E040EA50E40E941B
:101AF4007D3120E030EC4FE754E40E9479314B0112
:101B04005C0120E030E040E85FE3C701B6010E94D9
:101B14006C3118160CF02AC120E030E040E85FE395
:101B2400C501B4010E946C3118160CF01FC186E087
:101B340090E00E942230BC01990F880B990B0E94FF
:101B4400552C20E030E040EA50E40E947D3120E052
:101B540030EC4FE754E40E947931A70196010E94CA
:101B6400393120E030E040E05FE30E946C31181628
:101B74000CF080C08BB18B7E8BB9589A86E090E0D4
:101B84000E9422307C0187E090E00E942230EC0128
:101B9400B701FF0C880B990B0E94552C20E030E014
:101BA40040EA50E40E947D3120E030EC4FE754E4F9
:101BB4000E9479316B017C01BE01DD0F880B990B0A
:101BC4000E94552C20E030E040EA50E40E947D3130
:101BD40020E030EC4FE754E40E9479319B01AC01E2
:101BE400C701B6010E9439312DEC3CEC4CE45EE3B4
:101BF4000E94673188237CF50E949A300E94091361
:101C040065E088E20E94623141E066E473E080E0CE
:101C14000E944A2F68E285E00E94623141E06EE64C
:101C240073E080E00E944A2F68E281E20E94623100
:101C340041E062E573E080E00E944A2F68E281E4BB
:101C44000E94623141E062E773E080E00E944A2F23
:101C54000E94DA2F99C00E949A3068E284E10E94BF
:101C6400623141E06AE573E080E00E944A2F0E94FD
:101C7400DA2F8AC086E090E00E9422307C0185E061
:101C840090E00E942230EC01B701FF0C880B990B05
:101C94000E94552C20E030E040EA50E40E947D315F
:101CA40020E030EC4FE754E40E9479316B017C0171
:101CB400BE01DD0F880B990B0E94552C20E030E00B
:101CC40040EA50E40E947D3120E030EC4FE754E4D8
:101CD4000E9479319B01AC01C701B6010E943931E0
:101CE4002DEC3CEC4CE45EE30E94673188237CF5E8
:101CF4000E949A300E943D1165E088E20E946231A0
:101D040041E066E673E080E00E944A2F68E285E0E5
:101D14000E94623141E06EE673E080E00E944A2F47
:101D240068E281E20E94623141E062E573E080E0B2
:101D34000E944A2F68E281E40E94623141E062E736
:101D440073E080E00E944A2F0E94DA2F1DC00E9497
:101D54009A3068E284E10E94623141E06AE573E00E
:101D640080E00E944A2F0E94DA2F0EC00E949A300F
:101D740068E284E10E94623141E06AE573E080E058
:101D84000E944A2F0E94DA2FDF91CF91FF90EF90AB
:0E1D9400DF90CF90BF90AF909F908F900895FA
:101DA2002F923F924F926F927F928F929F92AF9219
:101DB200BF92CF92DF92EF92FF920F931F93CF9336
:101DC200DF93CDB7DEB72E970FB6F894DEBF0FBE06
:101DD200CDBF4C016B0138011A8219828FEF9FEF40
:101DE2009C838B831E821D8258874F833A87298763
:101DF200A12CB12CD6012D913D914C912A0D3B1D68
:101E0200411DB7FC4A95F901849147FD80818111FA
:101E120016C0F601208331834283F901849147FD84
:101E22008081853209F00FC21901442EFFEF2F1A6B
:101E32003F0A4F0AD6012D923D924C921BC0853229
:101E420041F3B401082E000C990B0E94442B4FEF72
:101E5200A41AB40ACFCF2C32DCF02D3229F5298115
:101E62003A8121603A8329830196A11DF60180837C
:101E72009183A283F60180819181A281FC01249148
:101E8200A7FD20812B3239F729813A812460EACFDC
:101E9200203221F429813A812860E4CF233251F49F
:101EA20029813A812061DECF203321F429813A81D0
:101EB2002260D8CFB701C6010E94092D9E838D836F
:101EC20097FF0BC029813A81F1E02F273A832983BA
:101ED2009195819591099E838D8389819A8180FF55
:101EE20003C08D7F9A838983F60180819181A281CB
:101EF200FC012491A7FD20812E3261F40196A11DDF
:101F0200F60180839183A283B701C6010E94092D45
:101F12009C838B83C6010E94602A182FD6012C91C4
:101F220011968C91119712969C91E22FF82F849121
:101F320097FD8081082E000C990B0E943131893661
:101F420009F44AC084F4833609F419C134F48532A1
:101F520009F445C18136E1F050C18436E9F1883691
:101F62000CF4E9C04AC1803709F4B0C03CF48E36A3
:101F720009F4D6C08F3609F46DC03FC1853709F424
:101F82004AC0883709F485C0833709F036C10DC1CC
:101F9200612F70E0A701CE010B960E942A2F892B98
:101FA20009F448C1F60180819181A2819C014A2FE6
:101FB2002F5F3F4F4F4F208331834283FC01249197
:101FC200A7FD2081AE01455F5F4FBE016F5F7F4F6E
:101FD200C4010E9400002BC1612F70E0970141E013
:101FE20050E0CE010B960E94BB27892B09F422C137
:101FF200F60180819181A2810196A11D8083918346
:10200200A283AE01455F5F4FBE016F5F7F4FC40188
:102012000E94D9260CC1612F70E0970140E050E088
:10202200CE010B960E94BB27892B09F403C1F6014E
:1020320080819181A2810196A11D80839183A283D7
:10204200AE01455F5F4FBE016F5F7F4FC4010E94CB
:102052008D2BEDC0612F70E0970140E050E0CE0182
:102062000B960E94BB27892B09F4E4C0F6018081FC
:102072009181A2810196A11D80839183A283AE01E9
:10208200455F5F4FBE016F5F7F4FC4010E945E29B3
:10209200CEC0612F70E0970140E050E0CE010B9678
:1020A2000E94BB27892B09F4C5C0F601808191816A
:1020B200A2819C014A2F2F5F3F4F4F4F20833183D4
:1020C2004283FC012491A7FD208120C0970140E0BA
:1020D20050E060EF70E0CE010B960E94BB27892B87
:1020E20009F4A8C0F60180819181A2810196A11D07
:1020F20080839183A2838B859C85892B31F400E0B8
:1021020010E02FEE33E040E08CC028E7AE01455FDF
:102112005F4FBE016F5F7F4FC4010E94FC2087C0EA
:10212200A501460D571D612F70E09701CE010B9658
:102132000E9400007FC0612F70E0A701CE010B96C4
:102142000E942A2F892B09F475C0F60180819181A2
:10215200A2819C014A2F2F5F3F4F4F4F2083318333
:102162004283FC012491A7FD2081AE01455F5F4FB0
:10217200BE016F5F7F4FC4010E94FB0158C010383F
:1021820009F058C0F60180819181A2810196A11DBA
:1021920080839183A283D701ED91FC911197CF01A6
:1021A20002968D939C93808126C0103809F042C01C
:1021B200F60180819181A2810196A11D8083918384
:1021C200A283D701ED91FC911197CF0103968D93D4
:1021D2009C9320813181428100E010E022C01038BE
:1021E20049F5F6012081318142812F5F3F4F4F4FE8
:1021F2002083318342838B870EC085E28B87F60171
:102202002082318242821A8219821E821D828FEFBF
:102212009FEF9C838B839E01255F3F4F40E801E047
:1022220010E0BE016F5F7F4FC4010E94902C8A0DA7
:102232009B1D0AC0F60180819181A2810196A11D98
:1022420080839183A283C5012E960FB6F894DEBFD8
:102252000FBECDBFDF91CF911F910F91FF90EF90F5
:10226200DF90CF90BF90AF909F908F907F906F90B4
:082272004F903F902F9008955A
:10227A000E949A3066E180E00E94623141E060E4A7
:10228A0073E080E00E944A2F41E06DE187E00E94FE
:10229A00D72D41E06DE188E00E94D72D41E06DE144
:1022AA0089E00E94D72D41E06DE18AE00E94D72D96
:1022BA0041E06DE18BE00E94D72D41E06DE18CE0B9
:1022CA000E94D72D41E06DE18DE00E94D72D41E0BB
:1022DA006DE18EE00E94D72D41E06BE08EE00E9416
:1022EA00D72D41E06CE08EE00E94D72D41E06DE0F1
:1022FA008EE00E94D72D41E06EE08EE00E94D72D3D
:10230A0041E06FE08EE00E94D72D41E060E18EE06F
:10231A000E94D72D41E061E18EE00E94D72D41E075
:10232A0062E18EE00E94D72D41E063E18EE00E94D7
:10233A00D72D41E064E18EE00E94D72D41E065E1AE
:10234A008EE00E94D72D41E066E18EE00E94D72DF3
:10235A0041E067E18EE00E94D72D41E068E18EE01E
:10236A000E94D72D41E069E18EE00E94D72D41E01D
:10237A006AE18EE00E94D72D41E06BE18EE00E9477
:10238A00D72D41E06CE18EE00E94D72D41E06DE14E
:10239A008EE00E94D72D41E06BE080E10E94D72DAC
:1023AA0041E06CE080E10E94D72D41E06DE080E1E0
:1023BA000E94D72D41E06EE080E10E94D72D41E0D6
:1023CA006FE080E10E94D72D41E062E180E10E9446
:1023DA00D72D41E063E180E10E94D72D41E064E11D
:1023EA0080E10E94D72D41E065E180E10E94D72D6E
:1023FA0041E066E180E10E94D72D41E069E180E198
:10240A000E94D72D41E06AE180E10E94D72D41E088
:10241A006BE180E10E94D72D41E06CE180E10E94EE
:10242A00D72D41E06DE180E10E94D72D41E06DE0BA
:10243A0081E10E94D72D41E06DE082E10E94D72D13
:10244A0041E06DE083E10E94D72D41E06DE084E137
:10245A000E94D72D41E06DE085E10E94D72D41E031
:10246A0064E181E10E94D72D41E063E182E10E94AB
:10247A00D72D41E064E182E10E94D72D41E065E178
:10248A0082E10E94D72D41E062E183E10E94D72DCB
:10249A0041E066E183E10E94D72D41E063E183E1F7
:1024AA000E94D72D41E064E183E10E94D72D41E0EB
:1024BA0065E183E10E94D72D41E064E184E10E9455
:1024CA00D72D41E064E185E10E94D72D41E06BE11F
:1024DA0081E10E94D72D41E06BE182E10E94D72D74
:1024EA0041E06BE183E10E94D72D41E06BE184E199
:1024FA000E94D72D41E06BE185E10E94D72D41E092
:10250A0066E086E10E94D72D41E067E086E10E94FD
:10251A00D72D41E068E086E10E94D72D41E069E0CD
:10252A0086E10E94D72D41E06AE086E10E94D72D1C
:10253A0041E06BE086E10E94D72D41E06CE086E144
:10254A000E94D72D41E06DE086E10E94D72D65E01B
:10255A0089E10E94623141E062E473E080E00E9416
:10256A004A2F41E064E186E10E94D72D41E065E10E
:10257A0086E10E94D72D41E066E186E10E94D72DCF
:10258A0041E067E186E10E94D72D41E068E186E1FA
:10259A000E94D72D41E069E186E10E94D72D41E0F2
:1025AA006AE186E10E94D72D41E06BE186E10E9453
:1025BA00D72D41E06CE186E10E94D72D41E06DE123
:1025CA0086E10E94D72D41E06EE186E10E94D72D77
:1025DA0041E06FE186E10E94D72D41E060E286E1A9
:1025EA000E94D72D41E061E286E10E94D72D6CE17D
:1025FA0089E10E94623141E064E473E080E00E9474
:08260A004A2F0E94DA2F089507
:102612000E949A3066E180E00E94623141E060E40B
:1026220073E080E00E944A2F41E06DE187E00E9462
:10263200D72D41E06DE188E00E94D72D41E06DE1A8
:1026420089E00E94D72D41E06DE18AE00E94D72DFA
:1026520041E06DE18BE00E94D72D41E06DE18CE01D
:102662000E94D72D41E06DE18DE00E94D72D41E01F
:102672006DE18EE00E94D72D41E06BE08EE00E947A
:10268200D72D41E06CE08EE00E94D72D41E06DE055
:102692008EE00E94D72D41E06EE08EE00E94D72DA1
:1026A20041E06FE08EE00E94D72D41E060E18EE0D4
:1026B2000E94D72D41E061E18EE00E94D72D41E0DA
:1026C20062E18EE00E94D72D41E063E18EE00E943C
:1026D200D72D41E064E18EE00E94D72D41E065E113
:1026E2008EE00E94D72D41E066E18EE00E94D72D58
:1026F20041E067E18EE00E94D72D41E068E18EE083
:102702000E94D72D41E069E18EE00E94D72D41E081
:102712006AE18EE00E94D72D41E06BE18EE00E94DB
:10272200D72D41E06CE18EE00E94D72D41E06DE1B2
:102732008EE00E94D72D41E06BE080E10E94D72D10
:1027420041E06CE080E10E94D72D41E06DE080E144
:102752000E94D72D41E06EE080E10E94D72D41E03A
:102762006FE080E10E94D72D41E062E180E10E94AA
:10277200D72D41E063E180E10E94D72D41E064E181
:1027820080E10E94D72D41E065E180E10E94D72DD2
:1027920041E066E180E10E94D72D41E069E180E1FC
:1027A2000E94D72D41E06AE180E10E94D72D41E0ED
:1027B2006BE180E10E94D72D41E06CE180E10E9453
:1027C200D72D41E06DE180E10E94D72D41E06DE01F
:1027D20081E10E94D72D41E06DE082E10E94D72D78
:1027E20041E06DE083E10E94D72D41E06DE084E19C
:1027F2000E94D72D41E06DE085E10E94D72D41E096
:1028020064E181E10E94D72D41E063E182E10E940F
:10281200D72D41E064E182E10E94D72D41E065E1DC
:1028220082E10E94D72D41E062E182E10E94D72D30
:1028320041E066E182E10E94D72D41E063E183E15C
:102842000E94D72D41E064E183E10E94D72D41E04F
:1028520065E183E10E94D72D41E064E184E10E94B9
:10286200D72D41E064E185E10E94D72D41E06BE183
:1028720081E10E94D72D41E06BE182E10E94D72DD8
:1028820041E06BE183E10E94D72D41E06BE184E1FD
:102892000E94D72D41E06BE185E10E94D72D41E0F6
:1028A20066E086E10E94D72D41E067E086E10E9462
:1028B200D72D41E068E086E10E94D72D41E069E032
:1028C20086E10E94D72D41E06AE086E10E94D72D81
:1028D20041E06BE086E10E94D72D41E06CE086E1A9
:1028E2000E94D72D41E06DE086E10E94D72D65E080
:1028F20089E10E94623141E062E473E080E00E947B
:102902004A2F41E064E186E10E94D72D41E065E172
:1029120086E10E94D72D41E066E186E10E94D72D33
:1029220041E067E186E10E94D72D41E068E186E15E
:102932000E94D72D41E069E186E10E94D72D41E056
:102942006AE186E10E94D72D41E06BE186E10E94B7
:10295200D72D41E06CE186E10E94D72D41E06DE187
:1029620086E10E94D72D41E06EE186E10E94D72DDB
:1029720041E06FE186E10E94D72D41E060E286E10D
:102982000E94D72D41E061E286E10E94D72D6CE1E1
:1029920089E10E94623141E064E473E080E00E94D8
:0829A2004A2F0E94DA2F08956C
:1029AA000E949A306CE070E080E090E00E94623110
:1029BA0041E050E06DE173E080E00E944A2F41E07F
:1029CA0050E06FE070E087E090E00E94D72D41E090
:1029DA0050E06FE070E088E090E00E94D72D41E07F
:1029EA0050E06FE070E089E090E00E94D72D41E06E
:1029FA0050E06FE070E08AE090E00E94D72D41E05D
:102A0A0050E06FE070E08BE090E00E94D72D41E04B
:102A1A0050E06FE070E08CE090E00E94D72D41E03A
:102A2A0050E06FE070E08DE090E00E94D72D41E029
:102A3A0050E06FE070E08EE090E00E94D72D41E018
:102A4A0050E069E070E08EE090E00E94D72D41E00E
:102A5A0050E06AE070E08EE090E00E94D72D41E0FD
:102A6A0050E06BE070E08EE090E00E94D72D41E0EC
:102A7A0050E06CE070E08EE090E00E94D72D41E0DB
:102A8A0050E06DE070E08EE090E00E94D72D41E0CA
:102A9A0050E06EE070E08EE090E00E94D72D41E0B9
:102AAA0050E06FE070E08EE090E00E94D72D41E0A8
:102ABA0050E060E170E08EE090E00E94D72D41E0A6
:102ACA0050E061E170E08EE090E00E94D72D41E095
:102ADA0050E062E170E08EE090E00E94D72D41E084
:102AEA0050E063E170E08EE090E00E94D72D41E073
:102AFA0050E064E170E08EE090E00E94D72D41E062
:102B0A0050E065E170E08EE090E00E94D72D41E050
:102B1A0050E066E170E08EE090E00E94D72D41E03F
:102B2A0050E062E170E08FE090E00E94D72D41E032
:102B3A0050E062E170E080E190E00E94D72D41E030
:102B4A0050E062E170E081E190E00E94D72D41E01F
:102B5A0050E063E170E08FE090E00E94D72D41E001
:102B6A0050E064E170E08FE090E00E94D72D41E0F0
:102B7A0050E063E170E080E190E00E94D72D41E0EF
:102B8A0050E064E170E081E190E00E94D72D41E0DD
:102B9A0050E065E170E082E190E00E94D72D41E0CB
:102BAA0050E066E170E083E190E00E94D72D41E0B9
:102BBA0050E067E170E083E190E00E94D72D41E0A8
:102BCA0050E068E170E083E190E00E94D72D41E097
:102BDA0050E069E170E083E190E00E94D72D41E086
:102BEA0050E06AE170E083E190E00E94D72D41E075
:102BFA0050E06CE070E08FE090E00E94D72D41E059
:102C0A0050E06BE070E080E190E00E94D72D41E057
:102C1A0050E06AE070E081E190E00E94D72D41E047
:102C2A0050E069E070E082E190E00E94D72D41E037
:102C3A0050E068E070E083E190E00E94D72D41E027
:102C4A0050E067E070E083E190E00E94D72D41E018
:102C5A0050E066E070E083E190E00E94D72D41E009
:102C6A0050E065E070E083E190E00E94D72D41E0FA
:102C7A0050E064E070E083E190E00E94D72D0E946A
:042C8A00DA2F0895A0
:102C8E000E949A306CE070E080E090E00E94623129
:102C9E0041E050E06DE173E080E00E944A2F41E098
:102CAE0050E06FE070E087E090E00E94D72D41E0A9
:102CBE0050E06FE070E088E090E00E94D72D41E098
:102CCE0050E06FE070E089E090E00E94D72D41E087
:102CDE0050E06FE070E08AE090E00E94D72D41E076
:102CEE0050E06FE070E08BE090E00E94D72D41E065
:102CFE0050E06FE070E08CE090E00E94D72D41E054
:102D0E0050E06FE070E08DE090E00E94D72D41E042
:102D1E0050E06FE070E08EE090E00E94D72D41E031
:102D2E0050E06AE070E08EE090E00E94D72D41E026
:102D3E0050E06BE070E08EE090E00E94D72D41E015
:102D4E0050E06CE070E08EE090E00E94D72D41E004
:102D5E0050E06DE070E08EE090E00E94D72D41E0F3
:102D6E0050E06EE070E08EE090E00E94D72D41E0E2
:102D7E0050E06FE070E08EE090E00E94D72D41E0D1
:102D8E0050E060E170E08EE090E00E94D72D41E0CF
:102D9E0050E061E170E08EE090E00E94D72D41E0BE
:102DAE0050E062E170E08EE090E00E94D72D41E0AD
:102DBE0050E063E170E08EE090E00E94D72D41E09C
:102DCE0050E064E170E08EE090E00E94D72D41E08B
:102DDE0050E062E170E08FE090E00E94D72D41E07C
:102DEE0050E063E170E080E190E00E94D72D41E079
:102DFE0050E064E170E081E190E00E94D72D41E067
:102E0E0050E065E170E082E190E00E94D72D41E054
:102E1E0050E065E170E083E190E00E94D72D41E043
:102E2E0050E066E170E083E190E00E94D72D41E032
:102E3E0050E066E170E082E190E00E94D72D41E023
:102E4E0050E066E170E081E190E00E94D72D41E014
:102E5E0050E064E170E083E190E00E94D72D41E004
:102E6E0050E067E170E083E190E00E94D72D41E0F1
:102E7E0050E068E170E083E190E00E94D72D41E0E0
:102E8E0050E069E170E083E190E00E94D72D41E0CF
:102E9E0050E06AE170E083E190E00E94D72D41E0BE
:102EAE0050E06CE070E08FE090E00E94D72D41E0A2
:102EBE0050E06BE070E080E190E00E94D72D41E0A1
:102ECE0050E06AE070E081E190E00E94D72D41E091
:102EDE0050E069E070E082E190E00E94D72D41E081
:102EEE0050E068E070E083E190E00E94D72D41E071
:102EFE0050E067E070E083E190E00E94D72D41E062
:102F0E0050E066E070E083E190E00E94D72D41E052
:102F1E0050E065E070E083E190E00E94D72D41E043
:102F2E0050E064E070E083E190E00E94D72D0E94B3
:042F3E00DA2F0895E9
:102F4200CF92DF92EF92FF920F931F93CF93DF9373
:102F5200EC018130910529F40E944A3003E010E02F
:102F620009C0039729F40E945E3001E010E002C01C
:102F720000E010E060912603709127038091240302
:102F820090912503681B790B072E000C880B990B77
:102F92000E94552C20E030E040EA50E40E947D314E
:102FA20020E030EC4FE754E40E9479316B017C0160
:102FB200E894F7F8C0921203D0921303E09214033C
:102FC200F092150320E030E0A901C701B6010E948A
:102FD2006C31181664F42DEC3CEC4CEC5EE3C7014A
:102FE200B6010E946731882314F40E94F418C0903D
:102FF2001203D0901303E0901403F09015032DEC0C
:103002003CEC4CEC5EE3C701B6010E946C31181631
:1030120064F420E030E040E05FE3C701B6010E94C3
:103022006731882314F40E94F81FC0901203D090D5
:103032001303E0901403F090150320E030E040E029
:103042005FE3C701B6010E946C31181664F426E6EC
:1030520036E646E65FE3C701B6010E946731882380
:1030620014F40E94F41EC0901203D0901303E09057
:103072001403F090150326E636E646E65FE3C70141
:10308200B6010E946C31181664F420E030E040E48E
:1030920050E4C701B6010E946731882314F40E94EC
:1030A200341A6CE070E08EE190E00E94623141E0FF
:1030B20050E060E973E080E00E944A2F41E050E076
:1030C2006FE070E086E490E00E94D72D41E050E08E
:1030D2006FE070E087E490E00E94D72D41E050E07D
:1030E2006FE070E088E490E00E94D72D41E050E06C
:1030F20060E170E088E490E00E94D72D41E050E06A
:1031020061E170E088E490E00E94D72D41E050E058
:1031120062E170E088E490E00E94D72D41E050E047
:1031220062E170E087E490E00E94D72D41E050E038
:1031320062E170E089E490E00E94D72D41E050E026
:1031420063E170E088E490E00E94D72D66E170E0D0
:1031520088E290E00E94623161E270E08EE190E0EC
:103162000E94623141E050E067E973E080E00E9432
:103172004A2F21E030E041E250E06AE270E0CE0105
:103182000E94CD2C61E270E087E390E00E94623100
:1031920041E050E06BE973E080E00E944A2F21E0B9
:1031A20030E041E250E063E470E0C8010E94CD2CBF
:1031B2000E94DA2F6091120370911303809114031D
:1031C2009091150305E010E026E130E048E250E07E
:1031D2000E94162CDF91CF911F910F91FF90EF90DB
:0631E200DF90CF9008957C
:1031E8000E949A306AE187E00E94623141E065EB13
:1031F80073E080E00E944A2F6AE18DE00E9462310C
:1032080041E06FEB73E080E00E944A2F41E066E006
:103218008CE00E94D72D41E067E08CE00E94D72D1A
:1032280041E068E08CE00E94D72D41E069E08CE045
:103238000E94D72D41E06AE08CE00E94D72D41E042
:103248006BE08CE00E94D72D41E06CE08CE00E949E
:10325800D72D41E06DE08CE00E94D72D41E06EE073
:103268008CE00E94D72D41E069E085E00E94D72DCF
:1032780041E06AE085E00E94D72D41E06BE085E0FF
:103288000E94D72D41E06CE085E00E94D72D41E0F7
:103298006CE086E00E94D72D41E06CE087E00E9458
:1032A800D72D41E06CE088E00E94D72D41E06CE02A
:1032B80089E00E94D72D41E06CE08AE00E94D72D7A
:1032C80041E06CE08BE00E94D72D41E06CE08CE09F
:1032D8000E94D72D41E06CE08DE00E94D72D41E09F
:1032E8006CE08EE00E94D72D41E06CE08FE00E94F8
:1032F800D72D41E06CE080E10E94D72D41E06CE0E1
:1033080081E10E94D72D41E06CE082E10E94D72D37
:1033180041E06CE083E10E94D72D41E06DE083E15C
:103328000E94D72D41E06EE083E10E94D72D41E055
:103338006FE083E10E94D72D41E061E188E00E94BF
:10334800D72D41E061E189E00E94D72D41E061E19C
:103358008AE00E94D72D41E061E18BE00E94D72DE1
:1033680041E061E18CE00E94D72D41E061E18DE010
:103378000E94D72D41E061E18EE00E94D72D41E007
:1033880061E18FE00E94D72D41E061E180E10E9478
:10339800D72D41E06EE08DE00E94D72D41E06FE02F
:1033A8008EE00E94D72D41E060E18FE00E94D72D8A
:1033B80041E06EE08BE00E94D72D41E06FE08AE0AB
:1033C8000E94D72D41E060E189E00E94D72D41E0BD
:1033D80060E18AE00E94D72D41E060E18BE00E9425
:1033E800D72D41E060E18CE00E94D72D41E060E1FB
:1033F8008DE00E94D72D41E060E18EE00E94D72D3C
:1034080041E06FE08BE00E94D72D41E06FE08CE057
:103418000E94D72D41E06FE08DE00E94D72D41E05A
:1034280062E18CE00E94D72D41E063E18CE00E94CC
:10343800D72D41E064E18CE00E94D72D41E065E1A1
:103448008CE00E94D72D41E066E18CE00E94D72DE8
:1034580041E067E18CE00E94D72D0E94DA2F0895A1
:103468000E949A306AE184E00E94623141E061EC96
:1034780073E080E00E944A2F41E066E08CE00E9401
:10348800D72D41E067E08CE00E94D72D41E068E04D
:103498008CE00E94D72D41E069E08CE00E94D72D96
:1034A80041E06AE08CE00E94D72D41E06BE08CE0BF
:1034B8000E94D72D41E06CE08CE00E94D72D41E0BE
:1034C8006DE08CE00E94D72D41E06EE08CE00E9418
:1034D800D72D41E06CE088E00E94D72D41E06CE0F8
:1034E80089E00E94D72D41E06CE08AE00E94D72D48
:1034F80041E06CE08BE00E94D72D41E06CE08CE06D
:103508000E94D72D41E06CE08DE00E94D72D41E06C
:103518006CE08EE00E94D72D41E06CE08FE00E94C5
:10352800D72D41E06CE080E10E94D72D41E06DE0AD
:1035380082E10E94D72D41E06CE083E10E94D72D03
:1035480041E06BE084E10E94D72D41E06AE084E12C
:103558000E94D72D41E06AE085E10E94D72D41E025
:103568006BE085E10E94D72D41E061E182E10E9494
:10357800D72D41E060E183E10E94D72D41E06FE063
:1035880084E10E94D72D41E06EE084E10E94D72DAE
:1035980041E06EE085E10E94D72D41E06FE085E1D2
:1035A8000E94D72D41E061E188E00E94D72D41E0DB
:1035B80061E189E00E94D72D41E061E18AE00E9443
:1035C800D72D41E061E18BE00E94D72D41E061E118
:1035D8008CE00E94D72D41E061E18DE00E94D72D5B
:1035E80041E061E18EE00E94D72D41E061E18FE08A
:1035F8000E94D72D41E061E180E10E94D72D41E092
:103608006EE08DE00E94D72D41E06FE08EE00E94D1
:10361800D72D41E060E18FE00E94D72D41E06EE0B8
:103628008BE00E94D72D41E06FE08AE00E94D72D01
:1036380041E060E189E00E94D72D41E060E18AE045
:103648000E94D72D41E060E18BE00E94D72D41E038
:1036580060E18CE00E94D72D41E060E18DE00E949E
:10366800D72D41E060E18EE00E94D72D41E06FE068
:103678008BE00E94D72D41E06FE08CE00E94D72DAF
:1036880041E06FE08DE00E94D72D41E062E18CE0DF
:103698000E94D72D41E063E18CE00E94D72D41E0E4
:1036A80064E18CE00E94D72D41E065E18CE00E9446
:1036B800D72D41E066E18CE00E94D72D41E067E11B
:0C36C8008CE00E94D72D0E94DA2F08959C
:1036D400CF93DF931BB81AB88AB184618AB95A9A16
:1036E40085E090E00E942230E9E7F0E080812091BB
:1036F4007800908190E0982F8827820F911D9C017B
:10370400220F331F220F331F820F931F6FEF73E0BB
:103714000E947230072E000C880B990B0E94552CC6
:1037240020E030E040E05FE30E94673188230CF042
:10373400A4C05C9A5A9886E090E00E942230E9E79F
:10374400F0E0808120917800908190E0982F882784
:10375400820F911D9C01220F331F220F331F820FF2
:10376400931F6FEF73E00E947230072E000C880BDA
:10377400990B0E94552C20E030E040E05FE30E946A
:1037840067318823ECF465E070E080E090E00E940B
:10379400623141E050E06FE173E080E00E944A2F23
:1037A40064E170E080E090E00E94623141E050E02A
:1037B4006BE273E080E00E944A2F0E94DA2FB9C0C6
:1037C400509A5498589A86E090E00E942230E9E793
:1037D400F0E0608180917800908170E0762F662718
:1037E400680F711D072E000C880B990B0E94552C35
:1037F40020E030E040EA50E40E947D3120E030ECEB
:103804004FE754E40E94793120E030E040E05FE388
:103814000E9467318823ECF465E070E080E090E07A
:103824000E94623141E050E06FE173E080E00E9469
:103834004A2F64E170E080E090E00E94623141E050
:1038440050E06BE273E080E00E944A2F0E94DA2F7E
:1038540070C00E94D51465E070E08CE390E00E9493
:10386400623141E050E068E373E080E00E944A2F57
:103874000E94DA2FC0E0D0E05CC0509A5498589867
:1038840087E090E00E942230E9E7F0E060818091D7
:103894007800908170E0762F6627680F711D072EDF
:1038A400000C880B990B0E94552C20E030E040EA74
:1038B40050E40E947D3120E030EC4FE754E40E9454
:1038C400793120E030E040E05FE30E9467318823F3
:1038D400ECF465E070E080E090E00E94623141E049
:1038E40050E06FE173E080E00E944A2F64E170E0F1
:1038F40080E090E00E94623141E050E06BE273E0CE
:1039040080E00E944A2F0E94DA2F13C00E944716BB
:1039140065E070E08CE390E00E94623141E050E0A9
:103924006CE373E080E00E944A2F0E94DA2FC1E02A
:0A393400D0E0CE01DF91CF9108959D
:10393E008F929F92AF92BF92CF92DF92EF92FF92B1
:10394E00CF93DF931BB81AB881EE94E00197F1F78D
:10395E0000C00000509A529A549A589A5C9A5A98FB
:10396E0081EE94E00197F1F700C0000087E090E04F
:10397E000E94363090931F0380931E0386E090E0E2
:10398E000E94363090931D0380931C0385E090E0D7
:10399E000E9436305C0190931B0380931A03C091F2
:1039AE001C03D0911D0380911E0390911F03BE0135
:1039BE00681B790B072E000C880B990B0E94552C57
:1039CE006B017C01E894F7F8BE016A197B09072E9A
:1039DE00000C880B990B0E94552C4B015C01E8944E
:1039EE00B7F8C1E020E030E040E053E4C701B60193
:1039FE000E946C3118160CF0C0E020E030E046E674
:103A0E0053E4C701B6010E946731881F8827881FBB
:103A1E00DC2FD823C1E020E030E040E053E4C501C4
:103A2E00B4010E946C3118160CF0C0E0CD23F9F0F1
:103A3E0020E030E046E653E4C501B4010E94673150
:103A4E008823ACF40E946A1B9093010180930001BD
:103A5E000E94D80890930D0180930C010E94A70537
:103A6E0081E090E0909319038093180389C05898D1
:103A7E005C985A9A81EE94E00197F1F700C000002D
:103A8E0087E090E00E94363090931F0380931E03D0
:103A9E0086E090E00E94363090931D0380931C03C5
:103AAE0085E090E00E9436305C0190931B0380937A
:103ABE001A03C0911C03D0911D0380911E03909197
:103ACE001F03BE01681B790B072E000C880B990B88
:103ADE000E94552C6B017C01E894F7F8BE016A191F
:103AEE007B09072E000C880B990B0E94552C4B015D
:103AFE005C01E894B7F8C1E020E030E040E053E428
:103B0E00C701B6010E946C3118160CF0C0E020E01F
:103B1E0030E046E653E4C701B6010E946731881FC4
:103B2E008827881FDC2FD823C1E020E030E040E05A
:103B3E0053E4C501B4010E946C3118160CF0C0E0BC
:103B4E00CD23F1F020E030E046E653E4C501B401A8
:103B5E000E9467318823A4F40E946A1B909301018E
:103B6E00809300010E94D80890930D0180930C0160
:103B7E000E94A70581E090E09093190380931803AB
:103B8E00DF91CF91FF90EF90DF90CF90BF90AF90ED
:063B9E009F908F90089536
:103BA4000E949A306AE187E00E94623141E06DEB45
:103BB40073E080E00E944A2F6AE18DE00E94623146
:103BC40041E06BEB73E080E00E944A2F41E066E045
:103BD4008CE00E94D72D41E067E08CE00E94D72D55
:103BE40041E068E08CE00E94D72D41E069E08CE080
:103BF4000E94D72D41E06AE08CE00E94D72D41E07D
:103C04006BE08CE00E94D72D41E06CE08CE00E94D8
:103C1400D72D41E06DE08CE00E94D72D41E06EE0AD
:103C24008CE00E94D72D41E069E085E00E94D72D09
:103C340041E06AE086E00E94D72D41E06BE087E036
:103C44000E94D72D41E06CE088E00E94D72D41E02E
:103C54006CE089E00E94D72D41E06CE08AE00E948C
:103C6400D72D41E06CE08BE00E94D72D41E06CE061
:103C74008CE00E94D72D41E06CE08DE00E94D72DAE
:103C840041E06CE08EE00E94D72D41E06CE08FE0D3
:103C94000E94D72D41E06CE080E10E94D72D41E0E5
:103CA4006DE081E10E94D72D41E06EE082E10E9447
:103CB400D72D41E06FE083E10E94D72D41E061E11F
:103CC40088E00E94D72D41E061E189E00E94D72D70
:103CD40041E061E18AE00E94D72D41E061E18BE09F
:103CE4000E94D72D41E061E18CE00E94D72D41E094
:103CF40061E18DE00E94D72D41E061E18EE00E94F8
:103D0400D72D41E061E18FE00E94D72D41E061E1D0
:103D140080E10E94D72D41E06EE08DE00E94D72D16
:103D240041E06FE08EE00E94D72D41E060E18FE03A
:103D34000E94D72D41E06EE08BE00E94D72D41E038
:103D44006FE08AE00E94D72D41E060E189E00E94A3
:103D5400D72D41E060E18AE00E94D72D41E060E187
:103D64008BE00E94D72D41E060E18CE00E94D72DCA
:103D740041E060E18DE00E94D72D41E060E18EE0FA
:103D84000E94D72D41E06FE08BE00E94D72D41E0E7
:103D94006FE08CE00E94D72D41E06FE08DE00E943F
:103DA400D72D41E062E18CE00E94D72D41E063E130
:103DB4008CE00E94D72D41E064E18CE00E94D72D75
:103DC40041E065E18CE00E94D72D41E066E18CE0A2
:103DD4000E94D72D41E067E18CE00E94D72D0E941C
:043DE400DA2F089535
:103DE8000E949A306AE187E00E94623141E065EB07
:103DF80073E080E00E944A2F6AE18DE00E94623100
:103E080041E067EB73E080E00E944A2F41E066E002
:103E18008CE00E94D72D41E067E08CE00E94D72D0E
:103E280041E068E08CE00E94D72D41E069E08CE039
:103E38000E94D72D41E06AE08CE00E94D72D41E036
:103E48006BE08CE00E94D72D41E06CE08CE00E9492
:103E5800D72D41E06DE08CE00E94D72D41E06EE067
:103E68008CE00E94D72D41E06CE088E00E94D72DBD
:103E780041E06CE089E00E94D72D41E06CE08AE0E7
:103E88000E94D72D41E06CE08BE00E94D72D41E0E5
:103E98006CE08CE00E94D72D41E06CE08DE00E9440
:103EA800D72D41E06CE08EE00E94D72D41E06CE018
:103EB8008FE00E94D72D41E06CE080E10E94D72D71
:103EC80041E061E188E00E94D72D41E061E189E0AD
:103ED8000E94D72D41E061E18AE00E94D72D41E0A0
:103EE80061E18BE00E94D72D41E061E18CE00E9406
:103EF800D72D41E061E18DE00E94D72D41E061E1DD
:103F08008EE00E94D72D41E061E18FE00E94D72D1D
:103F180041E061E180E10E94D72D41E06EE08DE053
:103F28000E94D72D41E06FE08EE00E94D72D41E03E
:103F380060E18FE00E94D72D41E06EE08BE00E94A7
:103F4800D72D41E06FE08AE00E94D72D41E060E183
:103F580089E00E94D72D41E060E18AE00E94D72DD8
:103F680041E060E18BE00E94D72D41E060E18CE008
:103F78000E94D72D41E060E18DE00E94D72D41E0FD
:103F880060E18EE00E94D72D41E06FE08BE00E9457
:103F9800D72D41E06FE08CE00E94D72D41E06FE023
:103FA8008DE00E94D72D41E062E18CE00E94D72D80
:103FB80041E063E18CE00E94D72D41E064E18CE0B0
:103FC8000E94D72D41E065E18CE00E94D72D41E0A9
:103FD80066E18CE00E94D72D41E067E18CE00E9409
:083FE800D72D0E94DA2F089585
:103FF0000E949A306AE187E00E94623141E069EBF9
:1040000073E080E00E944A2F6AE18DE00E946231F5
:1040100041E06BEB73E080E00E944A2F41E066E0F4
:104020008CE00E94D72D41E067E08CE00E94D72D04
:1040300041E068E08CE00E94D72D41E069E08CE02F
:104040000E94D72D41E06AE08CE00E94D72D41E02C
:104050006BE08CE00E94D72D41E06CE08CE00E9488
:10406000D72D41E06DE08CE00E94D72D41E06EE05D
:104070008CE00E94D72D41E06CE088E00E94D72DB3
:1040800041E06CE089E00E94D72D41E06CE08AE0DD
:104090000E94D72D41E06CE08BE00E94D72D41E0DB
:1040A0006CE08CE00E94D72D41E06CE08DE00E9436
:1040B000D72D41E06CE08EE00E94D72D41E06CE00E
:1040C0008FE00E94D72D41E06CE080E10E94D72D67
:1040D00041E061E188E00E94D72D41E061E189E0A3
:1040E0000E94D72D41E061E18AE00E94D72D41E096
:1040F00061E18BE00E94D72D41E061E18CE00E94FC
:10410000D72D41E061E18DE00E94D72D41E061E1D2
:104110008EE00E94D72D41E061E18FE00E94D72D13
:1041200041E061E180E10E94D72D41E06EE08DE049
:104130000E94D72D41E06FE08EE00E94D72D41E034
:1041400060E18FE00E94D72D41E06EE08BE00E949D
:10415000D72D41E06FE08AE00E94D72D41E060E179
:1041600089E00E94D72D41E060E18AE00E94D72DCE
:1041700041E060E18BE00E94D72D41E060E18CE0FE
:104180000E94D72D41E060E18DE00E94D72D41E0F3
:1041900060E18EE00E94D72D41E06FE08BE00E944D
:1041A000D72D41E06FE08CE00E94D72D41E06FE019
:1041B0008DE00E94D72D41E062E18CE00E94D72D76
:1041C00041E063E18CE00E94D72D41E064E18CE0A6
:1041D0000E94D72D41E065E18CE00E94D72D41E09F
:1041E00066E18CE00E94D72D41E067E18CE00E94FF
:0841F000D72D0E94DA2F08957B
:1041F800AFE0B0E0E2E0F1E20C94A32F1C016B0108
:104208005A8349832B83FB01828193818480958023
:10421800E080F180A680B78097FD03C0E894E1F8BC
:1042280002C081E090E0E981FA814080518062809B
:1042380073809701207133273D832C838401E4FE2A
:1042480007C0411451046104710411F002501109AE
:10425800F701E870FF27FF83EE83E3FE02C00150F9
:104268001109F6010084F185E02D3197FF87EE876B
:10427800EA0DFB1D10829C01201B310B3987288712
:10428800C701827099279B878A87EB818E2FEE0F53
:10429800990B9C01215431093D872C872E853F8538
:1042A8002230310530F48C819D81892B09F041C081
:1042B8005BC0411451046104710459F18E859F85D6
:1042C80001979F878E87C2018F7099278A30910541
:1042D80014F4C09602C0895A9F4FEC85FD857A97E1
:1042E80048F49C012062215631092A31310510F425
:1042F8000E942831EE85FF85EA0DFB1D8083015061
:10430800110984E076946794579447948A95D1F775
:10431800C5CF88859985800F911F1816190674F2E4
:10432800101611060CF0BFCFEA85FB85EF2B31F68E
:10433800BACFE981FA8180819181A281B381892BE9
:104348008A2B8B2B89F0EE85FF85EA0DFB1D3197B3
:104358002B8120838E859F8502979F878E87FC01FE
:10436800EA0DFB1D80E38083EE81FF81EF2B59F07E
:104378002E853F85215031093F872E87F901EA0DA7
:10438800FB1D80E28083F6012085318521503109AB
:104398008E859F85281B390B8A0D9B1DAC0160E813
:1043A8008401C1010E94AF2A9C01F10180819181A1
:1043B80090FF06C0F60182819381821793070CF45F
:0A43C800C9012F96E2E10C94BF2F0B
:1043D200CF92DF92EF92FF920F931F93CF93DF93CF
:1043E200CAE0D0E01BB81AB82FE986E891E0215064
:1043F20080409040E1F700C0000085E00E94363026
:104402008C01509A549A589A2FE986E891E02150EB
:1044120080409040E1F700C0000086E00E94363004
:10442200909327038093260387E00E94363090936F
:104432002503809324036091260370912703681B50
:10444200790B601B710B7093230360932203072E79
:10445200000C880B990B0E94552C9B01AC016091BA
:104462000E0370910F0380911003909111030E942B
:104472003A3160930E0370930F038093100390936D
:1044820011031BB81AB82FE986E891E02150804049
:104492009040E1F700C00000509A549A5C9A2FE9CC
:1044A20086E891E0215080409040E1F700C0000092
:1044B20086E00E943630909327038093260387E09C
:1044C2000E94363090932503809324036091260343
:1044D20070912703681B790B601B710B709321038A
:1044E20060932003072E000C880B990B0E94552C19
:1044F20020910A0330910B0340910C0350910D035C
:104502000E943A316B017C0160930A0370930B03A2
:1045120080930C0390930D03219709F063CF20E061
:1045220030E040E251E460910E0370910F038091FC
:104532001003909111030E94793160930E037093DE
:104542000F03809310039093110320E030E040E2C8
:1045520051E4C701B6010E94793160930A03709356
:104562000B0380930C0390930D03DF91CF911F9166
:0C4572000F91FF90EF90DF90CF90089524
:10457E006CE080E00E94623141E06FE083E10E94D6
:10458E00D72D41E06FE084E10E94D72D41E06FE02E
:10459E0085E10E94D72D41E06FE086E10E94D72D84
:1045AE0041E06FE087E10E94D72D41E06FE088E1A6
:1045BE000E94D72D41E06FE089E10E94D72D41E0A6
:1045CE006FE08AE10E94D72D41E06EE08BE10E9400
:1045DE00D72D41E06CE08CE10E94D72D41E06AE0DE
:1045EE008DE10E94D72D41E06CE08EE10E94D72D27
:1045FE0041E06EE08FE10E94D72D41E060E180E264
:10460E000E94D72D41E062E181E20E94D72D41E068
:10461E0064E182E20E94D72D41E062E183E20E94D2
:10462E00D72D41E060E184E20E94D72D41E06EE09B
:10463E0085E20E94D72D41E06CE086E20E94D72DE4
:10464E0041E06AE087E20E94D72D41E06CE088E20B
:10465E000E94D72D41E06EE089E20E94D72D41E005
:10466E0060E18AE20E94D72D41E062E18BE20E9476
:10467E00D72D41E064E18CE20E94D72D41E062E14A
:10468E008DE20E94D72D41E060E18EE20E94D72D8F
:10469E0041E06EE08FE20E94D72D41E06CE080E3B6
:1046AE000E94D72D41E06AE081E30E94D72D41E0C0
:1046BE006CE082E30E94D72D41E06EE083E30E941E
:1046CE00D72D41E06FE084E30E94D72D41E06FE0EB
:1046DE0085E30E94D72D41E06FE086E30E94D72D3F
:1046EE0041E06FE087E30E94D72D41E06FE088E361
:1046FE000E94D72D41E06FE089E30E94D72D41E063
:10470E006FE08AE30E94D72D41E06FE08BE30E94B9
:08471E00D72D0E94DA2F089547
:104726004F925F926F927F928F929F92AF92BF92BB
:10473600CF92DF92EF92FF920F931F930E94D21DAA
:104746000E94E92180900E0390900F03A090100321
:10475600B0901103E894B7F880920E0390920F037D
:10476600A0921003B0921103C0900A03D0900B03DD
:10477600E0900C03F0900D03E894F7F8C0920A035A
:10478600D0920B03E0920C03F0920D03A701960161
:10479600C501B4010E946C3118162CF520E030E0FA
:1047A60040EA50E4C701B6010E947D3120E030ECBA
:1047B6004FE754E40E9479312B013C01E89477F8E5
:1047C60020E030E040EA50E4C501B4010E947D31AA
:1047D60020E030EC4FE754E40E9479316B017C0114
:1047E600E894F7F824C020E030E040EA50E4C50140
:1047F600B4010E947D3120E030EC4FE754E40E9482
:1048060079312B013C01E89477F820E030E040EA6A
:1048160050E4C701B6010E947D3120E030EC4FE73D
:1048260054E40E9479316B017C01E894F7F862E068
:1048360070E08EE190E00E94623141E050E06BE76B
:1048460073E080E00E944A2F0E94DA2F04E010E015
:104856002AE030E04EE150E0C301B2010E94162C7E
:1048660068E170E08EE190E00E94623141E050E044
:1048760064E873E080E00E944A2F0E94DA2F20E26B
:1048860030E04EE150E0C701B6010E94162C87EADF
:1048960091E60197F1F700C000001F910F91FF907C
:1048A600EF90DF90CF90BF90AF909F908F907F90CA
:0848B6006F905F904F90089590
:1048BE008F929F92AF92BF92CF92DF92EF92FF9222
:1048CE000F931F93CF93DF931BB81AB88AB18161F0
:1048DE008AB9589A5C9883ED90E30197F1F700C07E
:1048EE000000C0E2D0E000E010E087E090E00E941F
:1048FE002230080F191F2197C1F7C0E2D0E0E12C3A
:10490E00F12C85E090E00E942230E80EF91E2197EE
:10491E00C1F7B701FF0C880B990B0E94552C20E0B4
:10492E0030E040E05DE30E947D3120E030E040EA7F
:10493E0050E40E947D3120E030EC4FE754E40E94B9
:10494E0079316B017C01B801110F880B990B0E9414
:10495E00552C20E030E040E05DE30E947D3120E008
:10496E0030E040EA50E40E947D3120E030EC4FE729
:10497E0054E40E947931A70196010E94393120E05A
:10498E0030E04AE754E40E947D314B015C0120E0A7
:10499E0030E04AE254E4C701B6010E94793120E0CA
:1049AE0030E04AE754E40E947D319B01AC01C50121
:1049BE00B4010E9479316B017C0161E08AE00E94B2
:1049CE00623141E069ED73E080E00E944A2F0E945F
:1049DE00BF226EE186E10E94623141E065EE73E036
:1049EE0080E00E944A2F06E010E02EE130E043E224
:1049FE0050E0C701B6010E94162C0E94DA2FDF91FB
:104A0E00CF911F910F91FF90EF90DF90CF90BF90BD
:084A1E00AF909F908F90089566
:104A26005F926F927F928F929F92AF92BF92CF9238
:104A3600DF92EF92FF920F931F93CF93DF93562E41
:104A4600262F30E04901880C991C880C991C820E8F
:104A5600931E181419040CF061C08901000F111F70
:104A6600000F111F000F111F021B130B612CA82E24
:104A7600B12CC50180975C01AA0CBB1CAA0CBB1CFF
:104A8600A80EB91E0F2EF9E0CF2EF3E0DF2EF02D83
:104A96000F2EF8E0EF2EF3E0FF2EF02D2DC0FE01D5
:104AA600249130E0872D652D0E94F23002C03595A5
:104AB60027958A95E2F720FF0AC0F6016081670D07
:104AC600F701808141E0860D0E94D72D09C0F601CD
:104AD6006081670DF701808140E0860D0E94D72D29
:104AE6007394872D90E080179107CCF26394862DFE
:104AF60090E08815990594F410161106BCF7862DDA
:104B0600652D0E94F230E501C80FD11DCE01A0E04F
:104B16008A5F9E4FAF4FEC01712CC1CF8091080385
:104B260091E0980F852D880F880F850D890F8435A4
:104B360018F4809308030EC010920803E9E0F3E02E
:104B4600808191E0980F852D880F880F880F851931
:104B5600890F808380910903803320F01092080327
:104B660010920903DF91CF911F910F91FF90EF9063
:104B7600DF90CF90BF90AF909F908F907F906F9077
:044B86005F9008959F
:104B8A004F925F926F927F928F929F92AF92BF9253
:104B9A00CF92DF92EF92FF92CF93DF93CDB7DEB73A
:104BAA0028970FB6F894DEBF0FBECDBF6B017C010C
:104BBA00DC01CB0147E1B695A795979587954A956C
:104BCA00D1F799278F579109873191059CF597FD60
:104BDA0036C088248A94982C3FE7A32EB12C04C0AF
:104BEA00B594A794979487948A95D2F7D501C4016E
:104BFA008C219D21AE21BF21892B8A2B8B2BD1F0B1
:104C0A0020E030E040E85BE7C701B6010E943A3194
:104C1A006D837E838F839887F7FE04C0C80CD91CE6
:104C2A00EA1CFB1C80949094A094B094C820D920CC
:104C3A00EA20FB205C2D4D2D3E2D2F2D21C020E09A
:104C4A0030E040E85BE7C701B6010E943A31698368
:104C5A007A838B839C83F7FE0FC0D701C601880F26
:104C6A00991FAA1FBB1F892B8A2B8B2B19F350E084
:104C7A0040E030E82FEB04C050E040E030E020E0B4
:104C8A00652F742F832F922F28960FB6F894DEBFC4
:104C9A000FBECDBFDF91CF91FF90EF90DF90CF9005
:104CAA00BF90AF909F908F907F906F905F904F9042
:024CBA0008955B
:104CBC00CF93DF93529A549A509A58985C9A83EDFA
:104CCC0090E30197F1F700C0000087E090E00E94AC
:104CDC00363090931F0380931E0385E090E00E9472
:104CEC00363090931D0380931C0320911E0330914A
:104CFC001F03A901481B590BCA01EA01992324F48B
:104D0C00CC27DD27C41BD50B5C98589A83ED90E318
:104D1C000197F1F700C0000087E090E00E94363068
:104D2C0090931F0380931E0385E090E00E94363021
:104D3C0090931D0380931C0320911E0330911F033D
:104D4C00281B390BC901992324F488279927821B26
:104D5C00930B41E09E012F513109253A334008F065
:104D6C0040E04423E9F041E09C012F513109253A00
:104D7C00334008F040E0442399F0C81BD90BCE0116
:104D8C0022F4882799278C1B9D0B8536910544F0BE
:104D9C0081E090E090931903809318030E94932371
:064DAC00DF91CF91089594
:104DB200A2E0B0E0EFEDF6E20C94A32F4C016B0100
:104DC200FB0122813381A480B580808191819A8305
:104DD200898366807780FA01208031804280538007
:104DE200B201A10157FE07C044275527BA01421953
:104DF20053096409750937FD03C08D7F9A8389833E
:104E0200950157FC05C0898182FD02C083FF02C063
:104E120021503109CE0101967C010AE010E0C60161
:104E22000E94F92857FC03C0298122FF0AC001977A
:104E3200F301E80FF91F57FC02C02BE209C02DE273
:104E420007C023FF06C00197F301E80FF91F20E214
:104E52002083E980FA80F6012085318521503109CD
:104E6200281B390B860D971DAC0160E88501C40132
:104E72000E94AF2A9C01F4018081918190FF06C0BB
:104E8200F60182819381821793070CF4C90122965D
:064E9200E2E10C94BF2FC9
:104E980010C00E94473158F00E94403140F029F478
:104EA8005F3F29F00C945C3151110C944F310C94F4
:104EB80081310E94E62E68F39923B1F3552391F3CB
:104EC800951B550BBB27AA2762177307840738F071
:104ED8009F5F5F4F220F331F441FAA1FA9F335D0CE
:104EE8000E2E3AF0E0E832D091505040E695001C82
:104EF800CAF72BD0FE2F29D0660F771F881FBB1F3C
:104F0800261737074807AB07B0E809F0BB0B802D19
:104F1800BF01FF2793585F4F3AF09E3F510578F045
:104F28000C945C310C944F315F3FE4F3983ED4F31A
:104F3800869577956795B795F7959F5FC9F7880F19
:104F4800911D9695879597F90895E1E0660F771F6B
:104F5800881FBB1F621773078407BA0720F0621BFC
:0E4F6800730B840BBA0BEE1F88F7E0950895CB
:104F7600CF93DF93DC01F90168387105F1F05CF439
:104F86006138710561F164387105C9F160387105E0
:104F960009F056C034C0603C710561F1603F71058F
:104FA60009F443C0603A710509F04AC0C081D18155
:104FB600CE010296918380832AC0C081D181CE0121
:104FC600029691838083452B39F04881042E000C8C
:104FD600550B660B770B21C0488150E02EC0C0816F
:104FE600D181CE01049691838083488159816A815B
:104FF6007B8113C0C081D181CE0102961AC0C081C7
:10500600D181CE01029691838083452BA1F0488100
:105016005981052E000C660B770B4D935D936D93AE
:105026007C93139781E090E00DC0C081D181CE01C1
:105036000396918380834881598160E070E0EDCFCB
:0A50460080E090E0DF91CF91089523
:105050000FC00E94403138F00E94473120F0952364
:1050600011F00C945C310C94813111240C944F316B
:105070000E94E62E70F3959FC1F3950F50E0551FE7
:10508000629FF001729FBB27F00DB11D639FAA279D
:10509000F00DB11DAA1F649F6627B00DA11D661FEC
:1050A000829F2227B00DA11D621F739FB00DA11D0D
:1050B000621F839FA00D611D221F749F3327A00DC7
:1050C000611D231F849F600D211D822F762F6A2F63
:1050D00011249F5750409AF0F1F088234AF0EE0FC8
:1050E000FF1FBB1F661F771F881F91505040A9F7F5
:1050F0009E3F510580F00C945C310C944F315F3F22
:10510000E4F3983ED4F3869577956795B795F79530
:10511000E7959F5FC1F7FE2B880F911D96958795A8
:0451200097F908955E
:1051240011C00E94403138F00E94473120F039F418
:105134009F3F19F426F40C9481310EF4E095E7FBBB
:105144000C945C31E92F0E94E62E58F3BA176207DB
:1051540073078407950720F079F4A6F50C944E3173
:105164000EF4E0950B2EBA2FA02D0B01B90190017E
:105174000C01CA01A0011124FF27591B99F0593FC2
:1051840050F4503E68F11A16F040A22F232F342F0A
:105194004427585FF3CF469537952795A795F04058
:1051A4005395C9F77EF41F16BA0B620B730B840B6D
:1051B400BAF09150A1F0FF0FBB1F661F771F881F25
:1051C400C2F70EC0BA0F621F731F841F48F487957D
:1051D40077956795B795F7959E3F08F0B0CF93956F
:0E51E400880F08F09927EE0F9795879508958C
:1051F200A0E0B0E0EFEFF8E20C94A52FDC0128016B
:105202001696AD90BC901797F70180819181129606
:10521200ED91FC9113971896CD91DC9119972197F6
:10522200F7FF02C0E1E0F0E0CA0DDB1D1882690160
:10523200A1E0B0E08F01021B130B4C01F2E08F22C0
:105242009924052C000C66087708CE018A199B095F
:10525200CA15DB0519F1411551056105710589F082
:10526200CB01BA01A30192010E94082FCA01A62F05
:10527200B72F605D6A9341E0C41AD108A901BC014D
:10528200E4CF98012C0D3D1D121613064CF31C148D
:105292001D0434F48114910419F702C080E090E0F7
:1052A200AB2B31F4F701208131812F7E31832083B2
:0A52B200CDB7DEB7E0E10C94C12F88
:1052BC00A2E0B0E0E4E6F9E20C94A72F5C016B01EC
:1052CC00FB012281338184809580808191819A8336
:1052DC0089836680778037FD03C08D7F9A838983AD
:1052EC00FA014081518162817381CE0101967C016A
:1052FC0008E010E09401C6010E94F928298124FFDE
:10530C0006C00197F301E80FF91F20E320832981E0
:10531C0023FF06C00197F301E80FF91F20E2208359
:10532C00E980FA80F6012085318521503109281B4E
:10533C00390B860D971DAC0160E88401C5010E94F4
:10534C00AF2A9C01F5018081918190FF06C0F60186
:10535C0082819381821793070CF4C9012296EEE0A7
:04536C000C94C32FAB
:10537000529A549A509A5C985A9A589A85E090E0BA
:105380000E94363090931B0380931A035C9A5A98BC
:10539000589885E090E00E94363090931D038093EA
:1053A0001C0320911A0330911B03BC016551710944
:1053B00041E06F3A734008F040E04423A9F061E017
:1053C000A90144515109413B534008F460E0662370
:1053D00059F081E090E0909319038093180383E0E3
:1053E00090E00E94A11708952551310941E02F3A1C
:1053F000334008F040E0442381F0449721E0813BB2
:10540000934008F420E0222341F081E090E0909363
:0C5410001903809318030E94A11708954F
:10541C006F927F928F92EF92FF920F931F93CF9385
:10542C00DF93CDB7DEB761970FB6F894DEBF0FBE32
:10543C00CDBFFE01319651E1DF011D925A95E9F77E
:10544C00A2E0B1E0BA83A9839C838B8377FF09C068
:10545C008FE490E090930F0180930E018FEF9FEFFC
:10546C0019C03901842E7C01615071097F836E83D0
:10547C009801682DA301CF010E94F42F488559850E
:10548C002E813F814217530708F49A01F701E20F6E
:10549C00F31F108261960FB6F894DEBF0FBECDBF1E
:1054AC00DF91CF911F910F91FF90EF908F907F9094
:0454BC006F90089550
:1054C000CF92DF92EF92DC0190E0292F30E0220FA3
:1054D000331F6901032E000CEE086E2DA601415604
:1054E0005C4F6F4F6A01E62EFA018491E7FC8081E0
:1054F00081110DC02F5F3F4F032E000C440B21562E
:105500003C4F4F4FF901849147FD808124C0CD90DD
:10551000DD90EC901297F6014491E7FC40818413F2
:1055200015C02F5F3F4F032E000C440B21563C4FFC
:105530004F4FF901949147FD90815FEFC51AD50A4D
:10554000E50ACD92DD92EC92129701C09F5F9B30ED
:0E55500008F4BBCF892FEF90DF90CF90089525
:10555E006F927F928F92AF92BF92CF92DF92EF9225
:10556E00FF920F931F93CF93DF935C013A01862E28
:10557E00E901670181E0C822DD24E0FC03C02017A9
:10558E00310758F09E01682DA301C5010E94452DDB
:10559E00C017D10710F0CE0118C07801EC1AFD0A21
:1055AE00E114F10449F0B50180E290E00E94442B31
:1055BE0081E0E81AF108F4CFCD2831F49E01682D70
:1055CE00A301C5010E94452DC801DF91CF911F9106
:1055DE000F91FF90EF90DF90CF90BF90AF908F9094
:0655EE007F906F9008950C
:1055F400A3E8B0E0E0E0FBE20C94A92F5C014901D0
:10560400CF57DF4F488359836A83C158D040C12C98
:10561400D12CCF57DF4F2881C158D040CE57DF4F10
:105624009881C258D040CD57DF4F8881C358D040AD
:10563400E22FF92F949187FD90819923E9F0740169
:10564400860120E830E0AE014F5F5F4FBE016F5727
:105654007F4FC5010E94D10E8C0D9D1D8C159D059B
:105664004CF48FE490E090930F0180930E018FEF40
:105674009FEF03C06C01CDCFC601CD57DF4FECE0E7
:045684000C94C52F8E
:105688000F931F93CF93DF93DB012D913C911197DB
:1056980030FF25C017964D915C91189715962D915E
:1056A8003C9116974217530778F41296ED91FC91A6
:1056B8001397808312962D913C9113972F5F3F4F3C
:1056C80013963C932E93129717962D913C91189709
:1056D8002F5F3F4F18963C932E93179715C01D9632
:1056E800ED91FC911E97309719F48FEF9FEF0CC046
:1056F8008B01EC010995892BC1F7F8018781908509
:10570800019690878783CE01DF91CF911F910F91EA
:025718000895F2
:10571A00A2E0B0E0E3E9FBE20C94A72F5C016B0185
:10572A00FB012281338184809580808191819A83D3
:10573A0089836680778037FD03C08D7F9A8389834A
:10574A00FA014081518162817381CE0101967C0107
:10575A000AE010E09401C6010E94F928E980FA8063
:10576A00F6012085318521503109281B390B860D18
:10577A00971DAC0160E88401C5010E94AF2A9C0113
:10578A00F5018081918190FF06C0F60182819381A3
:10579A00821793070CF4C9012296EEE00C94C32FEA
:1057AA00CF93DF93269A259A249A229A219A2D9AA0
:1057BA002E9A83EC99E00197F1F700C000002D982A
:1057CA008BE594E40197F1F700C000002D9A2E981A
:1057DA0081E20E94753183E10E94753186E00E9460
:1057EA00753182EC0E94753180E20E94753189E040
:1057FA000E94753180E80E94753180E40E947531FB
:10580A00C8EFD1E061E080E00E94692F2197D1F7CB
:10581A0088E00E9475318CE00E947531DF91CF914A
:02582A000895DF
:10582C00EF92FF920F931F93CF93DF93EA017901CD
:10583C009F938F937F936F9386E793E0A0E0AF9352
:10584C009F938F9382E091E09F938F930E94C0303F
:10585C00B701CE010E9462318DB79EB709960FB683
:10586C00F8949EBF0FBE8DBF101611066CF4C2E0EB
:10587C00D1E00E5F1E4F899161E070E090E00E94D4
:10588C001325C017D107B9F70E94DA2FDF91CF91FA
:0A589C001F910F91FF90EF90089507
:1058A600E89409C097FB3EF49095809570956195B4
:1058B6007F4F8F4F9F4F9923A9F0F92F96E9BB276A
:1058C6009395F695879577956795B795F111F8CFE6
:1058D600FAF4BB0F11F460FF1BC06F5F7F4F8F4F51
:1058E6009F4F16C0882311F096E911C0772321F047
:1058F6009EE8872F762F05C0662371F096E8862FDF
:1059060070E060E02AF09A95660F771F881FDAF735
:0A591600880F9695879597F908957C
:105920006F927F928F92CF92DF92EF92FF920F93BE
:105930001F93CF93DF936C01FB013901842EC801C3
:10594000C281D38104811581E080F180232B242B37
:1059500031F428EE622E23E0722E20E0822E009792
:1059600021F4882DB3010E940C30D7FD04C0C81764
:10597000D90708F4CE019C01682DA301C6010E943D
:10598000AF2ADF91CF911F910F91FF90EF90DF90A1
:0A599000CF908F907F906F900895E4
:10599A00EF92FF920F931F93CF93DF93EB017A015C
:1059AA0089019F938F938DE893E0A0E0AF939F9333
:1059BA008F9382E091E09F938F930E94AD30B7015D
:1059CA00CE010E9462318DB79EB707960FB6F89442
:1059DA009EBF0FBE8DBF101611066CF4C2E0D1E057
:1059EA000E5F1E4F899161E070E090E00E941325DE
:1059FA00C017D107B9F70E94DA2FDF91CF911F9113
:085A0A000F91FF90EF90089549
:105A1200DC012D913D914C911297F901849147FD42
:105A220080818A3221F080E090E07AE011C02F5F1D
:105A32003F4F4F4F2D933D934C93DB01ED91FC91E2
:105A42001197CF0102968D939C9380819181089545
:105A52002D913D914C911297F901549147FD50813E
:105A620050535A3080F4789FF001799FF00D112441
